S00B00004943552E7372656338
S11300000C942A000C943C000C943C000C94B80111
S11300100C943C000C943C000C943C000C943C006C
S11300200C943C000C943C000C943C000C94A701F0
S11300300C943C000C943C000C943C000C943C004C
S11300400C943C000C943C000C943C000C943C003C
S11300500C943C0011241FBECFE5D8E0DEBFCDBF19
S113006020E0A0E6B0E001C01D92A436B207E1F79B
S11300700E94FE000C9409020C94000041111CC063
S1130080813059F028F0823069F0833081F008958E
S11300908AB3609568236ABB089587B36095682323
S11300A067BB089584B36095682364BB089581B3E6
S11300B06095682361BB08954F3FB9F4813051F0D6
S11300C028F0823059F0833069F008958AB3682BA0
S11300D06ABB089587B3682B67BB089584B3682B04
S11300E064BB089581B3682B61BB0895813071F0BE
S11300F028F0823099F08330C9F008958BB3962F9D
S1130100909589234623482B4BBB089588B3962F9B
S1130110909589234623482B48BB089585B3962F91
S1130120909589234623482B45BB089582B3962F87
S1130130909589234623482B42BB0895813061F072
S113014028F0823079F0833099F008954FEF60E120
S113015081E00E943E0008954FEF60E281E00E943A
S11301603E0008954FEF60E481E00E943E00089550
S11301704FEF60E881E00E943E000895813061F015
S113018028F0823079F0833099F008954FEF60E1E0
S113019081E00E94760008954FEF60E281E00E94C2
S11301A0760008954FEF60E481E00E9476000895A0
S11301B04FEF60E881E00E9476000895813061F09D
S11301C028F0823079F0833099F0089540E060E1BE
S11301D081E00E947600089540E060E281E00E94A0
S11301E07600089540E060E481E00E94760008957E
S11301F040E060E881E00E9476000895789480E40D
S11302000E946D0180E00E949E0081E00E949E0099
S113021082E00E949E0083E00E949E004FEF61E016
S113022080E00E943E00CFE04FEF61E080E00E945A
S1130230760089EF90E00197F1F700C0000040E0FC
S113024061E080E00E947600809161008230E1F7F5
S113025022B790E1299F90011124AFE9B6E40E94EE
S1130260FA01929582958F7089279F7089278F3024
S113027008F08C2F482F4295407F60EF81E00E9468
S1130280760012BE87EA91E60197F1F700C00000FC
S11302901092610010926000C7CF0E949B010895E4
S11302A00E94A101089578948BB780628BBF089552
S11302B08BB78F7D8BBF0895CF93C82F0E945801B1
S11302C084B78F7B84BF84B7C82BC4BF8AB78F7DA4
S11302D08ABF0E945301CF910895EF920F93CF9359
S11302E0C82FEE24E39400E020E044E060E080E0E6
S11302F00E9486018C2F0E945C0140E064E081E052
S11303000E943E00CF910F91EF900895EF920F93CA
S113031093B7906893BF93B7892B83BF83B7682B38
S113032063BF4093620022BF0CBF89B7E82AE9BECD
S11303300F91EF90089593B780916200892B83BF4A
S1130340089583B7887F83BF83B783BF08951F92BF
S11303500F920FB60F9211248F93809163008F5FD9
S1130360809363008F910F900FBE0F901F9018958C
S11303701F920F920FB60F9211242F933F934F9316
S11303805F936F937F938F939F93AF93BF93EF93F9
S1130390FF9380916000882319F0813069F019C0BF
S11303A080E00E94BE000E944D0180E00E945C013A
S11303B081E0809360000DC00E94500180E40E949F
S11303C05C0180E00E94DE0082E080936000809304
S11303D06100FF91EF91BF91AF919F918F917F91B8
S11303E06F915F914F913F912F910F900FBE0F909E
S11303F01F901895A29FB001B39FC001A39F700DD9
S1130400811D1124911DB29F700D811D1124911D18
S10904100895F894FFCFEB
S9030000FC
