S00E000048575F50574D2E7372656324
S11300000C942A000C943C000C943C000C94500278
S11300100C943C000C943C000C943C000C943C006C
S11300200C943C000C943C000C943C000C94AD02E9
S11300300C943C000C943C000C943C000C943C004C
S11300400C943C000C943C000C943C000C943C003C
S11300500C943C0011241FBECFE5D8E0DEBFCDBF19
S113006020E0A0E6B0E001C01D92AB36B207E1F794
S11300700E948C010C942D050C940000882319F027
S1130080813089F008954FEF64E083E00E94B3006B
S11300904FEF68E083E00E94B3004FEF60E183E03C
S11300A00E94B30008954FEF60E483E00E94B30020
S11300B04FEF60E883E00E94B3004FEF60E283E01B
S11300C00E94B3000895811127C0613079F018F0BF
S11300D06230B9F0089540E064E083E00E94EB00F0
S11300E040E068E083E00E94EB0008954FEF64E095
S11300F083E00E94EB0040E068E083E00E94EB00B4
S1130100089540E064E083E00E94EB004FEF68E074
S113011083E00E94EB000895613079F018F06230BA
S1130120B9F0089540E060E483E00E94EB0040E011
S113013060E883E00E94EB0008954FEF60E483E001
S11301400E94EB0040E060E883E00E94EB00089529
S113015040E060E483E00E94EB004FEF60E883E05E
S11301600E94EB00089541111CC0813059F028F021
S1130170823069F0833081F008958AB360956823F2
S11301806ABB089587B36095682367BB089584B3F9
S11301906095682364BB089581B36095682361BB4F
S11301A008954F3FB9F4813051F028F0823059F06E
S11301B0833069F008958AB3682B6ABB089587B3C6
S11301C0682B67BB089584B3682B64BB089581B31F
S11301D0682B61BB0895813071F028F0823099F06A
S11301E08330C9F008958BB3962F909589234623C5
S11301F0482B4BBB089588B3962F909589234623AB
S1130200482B48BB089585B3962F909589234623A0
S1130210482B45BB089582B3962F90958923462396
S1130220482B42BB0895AF92CF92DF92EF92FF9298
S11302300F931F934FEF60E283E00E94B3004FEFF0
S113024060E183E00E94B300A12CC12CD12CE12CED
S1130250F12C00E010E020E030E044E060E070EADF
S113026080E192E00E9428031F910F91FF90EF908C
S1130270DF90CF90AF900895423351056105710529
S113028031F04436510561057105A1F01BC022EE21
S113029034E037BD26BD682F70E080E090E00E9416
S11302A0010420E030E048E451E40E94B1040E94DB
S11302B0D0030BC080E197E297BD86BD60E070E09B
S11302C0CB0103C060E070E0CB017BBD6ABD79BDAA
S11302D068BD0E9453030895813061F028F0823094
S11302E079F0833099F008954FEF60E181E00E9446
S11302F0B30008954FEF60E281E00E94B3000895D7
S11303004FEF60E481E00E94B30008954FEF60E88E
S113031081E00E94B3000895789480E40E9437023B
S113032080E00E946C0181E00E946C0182E00E94E6
S11303306C0183E00E946C014FEF61E080E00E9459
S1130340B3000E94130180E00E943E0081E00E94FD
S11303503E0061E080E00E94630061E081E00E9471
S1130360630042E350E060E070E082E30E943C01FD
S1130370DFE04FEF61E080E00E94EB0089EF90E066
S11303800197F1F700C0000040E061E080E00E94C6
S1130390EB00809166008230E1F722B790E1299F5B
S11303A090011124AFE9B6E40E941E05929582954E
S11303B08F7089279F708927C82F8F30D8F4863093
S11303C0D0F460E080E00E94630060E081E00E947D
S11303D0630042E350E060E070E080E00E943C0192
S11303E02FE38DE093E0215080409040E1F700C07E
S11303F0000010C0CD2F61E080E00E94630061E046
S113040081E00E94630042E350E060E070E082E338
S11304100E943C014C2F4295407F60EF81E00E9496
S1130420EB0012BE87EA91E60197F1F700C00000E5
S113043010926600109265009CCF78948BB780620E
S11304408BBF08958BB78F7D8BBF0895CF93C82F33
S11304500E94220284B78F7B84BF84B7C82BC4BF99
S11304608AB78F7D8ABF0E941D02CF910895EF92B3
S11304700F93CF93C82FEE24E39400E020E044E0F0
S113048060E080E00E948C028C2F0E94260240E0F3
S113049064E081E00E94B300CF910F91EF90089542
S11304A01F920F920FB60F9211242F933F934F93E5
S11304B05F936F937F938F939F93AF93BF93EF93C8
S11304C0FF9380916500882319F0813051F013C0A7
S11304D00E94A10280E00E94260281E080936500D0
S11304E00AC00E94A70280E40E94260282E0809350
S11304F0650080936600FF91EF91BF91AF919F914A
S11305008F917F916F915F914F913F912F910F90B8
S11305100FBE0F901F901895EF920F9393B79068AA
S113052093BF93B7892B83BF83B7682B63BF409373
S1130530600022BF0CBF89B7E82AE9BE0F91EF9093
S1130540089593B780916000892B83BF089583B782
S1130550887F83BF83B783BF08951F920F920FB61E
S11305600F921124CF92DF92EF92FF922F933F9339
S11305704F935F936F937F938F939F93AF93BF93A7
S1130580EF93FF9360916900C0906100D090620086
S1130590E0906300F090640070E080E090E00E94DE
S11305A00104A70196010E94CB03811106C040E01B
S11305B061E083E00E94EB001DC0609161007091D6
S11305C06200809163009091640020E030E048EC88
S11305D052E40E94CB0381110DC01092610010926D
S11305E0620010926300109264004FEF61E083E0B8
S11305F00E94EB0060916100709162008091630041
S11306009091640020E030E040E85FE30E945F03E3
S11306106093610070936200809363009093640020
S113062080916A0082BFFF91EF91BF91AF919F913A
S11306308F917F916F915F914F913F912F91FF9097
S1130640EF90DF90CF900F900FBE0F901F901895F2
S1130650AF92CF92DF92EF92FF920F931F93EEB57A
S1130660FFB58E2B9F2B9FBD8EBD8EB59FB5682B7E
S1130670792B7FBD6EBD50E05093680040936700B6
S11306803DBD2CBD1BBD0ABDF9BCE8BCD7BCC6BC76
S113069089B7A82AA9BE1F910F91FF90EF90DF9010
S11306A0CF90AF9008952EB53FB58091670090919B
S11306B06800822B932B9FBD8EBD08955058BB2795
S11306C0AA270E9476030C9477040E94690438F0E8
S11306D00E94700420F039F49F3F19F426F40C941E
S11306E066040EF4E095E7FB0C946004E92F0E9485
S11306F0880458F3BA17620773078407950720F034
S113070079F4A6F50C94AA040EF4E0950B2EBA2FF6
S1130710A02D0B01B90190010C01CA01A001112403
S1130720FF27591B99F0593F50F4503E68F11A16AF
S1130730F040A22F232F342F4427585FF3CF469540
S113074037952795A795F0405395C9F77EF41F1662
S1130750BA0B620B730B840BBAF09150A1F0FF0F2C
S1130760BB1F661F771F881FC2F70EC0BA0F621F18
S1130770731F841F48F4879577956795B795F79508
S11307809E3F08F0B0CF9395880F08F09927EE0F9D
S11307909795879508950E943C0408F481E0089594
S11307A00E94900488F09F5798F0B92F9927B75169
S11307B0B0F0E1F0660F771F881F991F1AF0BA9501
S11307C0C9F714C0B13091F00E94AA04B1E00895B1
S11307D00C94AA04672F782F8827B85F39F0B93FA3
S11307E0CCF3869577956795B395D9F73EF49095B4
S11307F08095709561957F4F8F4F9F4F0895E89432
S113080009C097FB3EF490958095709561957F4F54
S11308108F4F9F4F9923A9F0F92F96E9BB27939502
S1130820F695879577956795B795F111F8CFFAF412
S1130830BB0F11F460FF1BC06F5F7F4F8F4F9F4F43
S113084016C0882311F096E911C0772321F09EE8A1
S1130850872F762F05C0662371F096E8862F70E007
S113086060E02AF09A95660F771F881FDAF7880FE1
S11308709695879597F90895990F0008550FAA0B37
S1130880E0E8FEEF16161706E807F907C0F012169F
S11308901306E407F50798F0621B730B840B950BA2
S11308A039F40A2661F0232B242B252B21F40895F7
S11308B00A2609F4A140A6958FEF811D811D089594
S11308C097F99F6780E870E060E008959FEF80ECFF
S11308D0089500240A9416161706180609060895A2
S11308E000240A9412161306140605060895092E08
S11308F00394000C11F4882352F0BB0F40F4BF2B77
S113090011F460FF04C06F5F7F4F8F4F9F4F0895B6
S113091057FD9058440F551F59F05F3F71F04795AC
S1130920880F97FB991F61F09F3F79F08795089591
S1130930121613061406551FF2CF4695F1DF08C0B0
S1130940161617061806991FF1CF869571056105CD
S113095008940895E894BB2766277727CB0197F975
S113096008950E94C4040C9477040E94690438F02A
S11309700E94700420F0952311F00C9460040C94F0
S1130980660411240C94AB040E94880470F3959FB0
S1130990C1F3950F50E0551F629FF001729FBB2772
S11309A0F00DB11D639FAA27F00DB11DAA1F649F0E
S11309B06627B00DA11D661F829F2227B00DA11DC1
S11309C0621F739FB00DA11D621F839FA00D611D47
S11309D0221F749F3327A00D611D231F849F600D68
S11309E0211D822F762F6A2F11249F5750409AF091
S11309F0F1F088234AF0EE0FFF1FBB1F661F771F1D
S1130A00881F91505040A9F79E3F510580F00C94E7
S1130A1060040C94AB045F3FE4F3983ED4F38695F2
S1130A2077956795B795F795E7959F5FC1F7FE2B87
S1130A30880F911D9695879597F90895A29FB00107
S1130A40B39FC001A39F700D811D1124911DB29FFE
S1110A50700D811D1124911D0895F894FFCF9F
S9030000FC
